:1000000023C03DC03CC03BC03AC0EAC038C037C086
:1000100036C035C034C033C032C031C030C0010238
:100020000000040000000000000000003800000094
:100030000000370002020202020202020202010272
:10004000040810202004100811241FBECFE5D2E0C0
:10005000DEBFCDBF10E0A0E6B0E0EEE7F3E002C007
:1000600005900D92A23AB107D9F720E0A2EAB0E0DC
:1000700001C01D92AD3AB207E1F7FCD07EC1C0CFFE
:1000800090E0FC01E25CFF4F24918C5C9F4FFC01EF
:100090008491882399F090E0880F991FFC01E25D1C
:1000A000FF4FA591B491FC01E85DFF4F85919491BC
:1000B0008FB7F894EC91E22BEC938FBF089590E00A
:1000C000FC01E25EFF4F3491FC01E25CFF4F2491A2
:1000D000FC01EC5CFF4FE491EE23B9F0332329F0EF
:1000E000323001F198F43130C9F0F0E0EE0FFF1F2B
:1000F000E85DFF4FA591B4918FB7F894EC91611131
:1001000014C020952E232C938FBF0895333011F007
:10011000343059F78CB58F7D8CBDE7CF8AB58F779A
:100120008ABDE3CF8AB58F7DFBCF2E2BECCF3FB7B7
:10013000F8948091A9009091AA00A091AB00B09191
:10014000AC0022B708B601FE05C02F3F19F001969A
:10015000A11DB11D3FBFBA2FA92F982F8827BC0121
:10016000CD01620F711D811D911D43E0660F771F48
:10017000881F991F4A95D1F708958F929F92AF9249
:10018000BF92CF92DF92EF92FF92D1DF4B015C01E1
:100190008AE0C82ED12CE12CF12CC9DF681979092D
:1001A0008A099B09683E734081059105B0F321E0FF
:1001B000C21AD108E108F10888EE880E83E0981E83
:1001C000A11CB11CC114D104E104F10431F7FF906A
:1001D000EF90DF90CF90BF90AF909F908F90089559
:1001E0001F920F920FB60F9211242F933F938F936C
:1001F0009F93AF93BF938091A5009091A600A0918B
:10020000A700B091A8003091A40026E0230F2D375D
:1002100058F50296A11DB11D2093A4008093A5005E
:100220009093A600A093A700B093A8008091A90086
:100230009091AA00A091AB00B091AC000196A11DD5
:10024000B11D8093A9009093AA00A093AB00B09336
:10025000AC00BF91AF919F918F913F912F910F90E3
:100260000FBE0F901F90189529E8230F0396A11D2C
:10027000B11DD2CF78948AB582608ABD8AB581607B
:100280008ABD83B7826083BF83B7816083BF89B72C
:10029000826089BF80B7826080BF80B7816080BF85
:1002A000329A319A3098379A8CB580648CBD82E04E
:1002B000E7DE83E0E5DE81E0E3DE80E0E1DE84E0AE
:1002C000DFDE61E080E0FBDEC8E0D0E061E083E0FB
:1002D000F6DE53DF60E083E0F2DE4FDF2197B1F717
:1002E00000E010E0C091A200D091A300FE01EF5900
:1002F000FF4F808161E0811101C060E084E0DFDEBA
:10030000CE0187709927892B41F461E081E0D7DE27
:10031000209719F460E080E0D2DECE018370992747
:10032000892B49F480916000882301F161E083E02A
:10033000C6DE1092600061E082E0C1DE1EDF60E098
:1003400082E0BDDE60E081E0BADE61E080E0B7DE41
:1003500014DF2196CF73DD27D093A300C093A200B2
:100360000115110509F4BECF4BDEBCCF60E083E080
:0E037000A6DE81E080936000DECFF894FFCF20
:10037E000100000000000000000000010101010169
:10038E000000010101010001000001000101000156
:10039E000000010000010001000001010101010146
:1003AE00000000000000010000000000000001003D
:0203BE0000003D
:00000001FF
